:03000000020B24CC
:0C0B2400787FE4F6D8FD758115020A67A1
:100B00004F42535441434C45202041542000303043
:050B1000303020434DD0
:100A67007F30120B15120ADC7F38120B15120ADCC5
:100A77007F0C120B15120ADC7F01120B15120ADC10
:100A87007F06120B15120ADC7BFF7A0B79007F8039
:100A9700120AB2758909D28CE4F58CF58AD2B212A2
:0B0AA70009B07F027E00120AE080F41C
:040ADC007F017E0018
:100AE000E4FDFCC3ED9FEC9E5015E4FBFA0BBB004C
:0F0AF000010ABA04F8BBFBF50DBD00010C80E450
:010AFF0022D4
:0F0B1500D2A0D2A1D2A28F90C2A0C2A1C2A2220E
:100AB2008B138A148915120B158019AB13AA14A96A
:100AC200151208F66013D2A0D2A1D2A2F590D2A03C
:0A0AD200C2A1C2A2120ADC80E222D7
:1009B000E4F508F509F50A750B03780C7C00FD7B5E
:1009C000FF7A0B790EFE7F071208D0E4F58CF58ACA
:1009D000D2B500000000000000000000C2B530B237
:1009E000FD20B2FDAF8C8F82758300E582AD8AF564
:1009F00083EDF582758CFF758AFFAF82AE83EE338F
:100A000095E0FDFCE47BFC7A85F9F8D312094540BA
:100A100011AE83AF827C007D3612090F8E088F09DC
:100A20008005E4F508F509E5094508602FAE08AF33
:100A3000097C007D0A12090FED4430FF740C250B70
:100A4000F8A607AE08AF097C007D0A12090F8E08D0
:100A50008F09E50B150B70CF150A80CB7B007A0050
:070A6000790C7FC5020AB208
:10080000E709F608DFFA8046E709F208DFFA803EDA
:1008100088828C83E709F0A3DFFA8032E309F608C7
:10082000DFFA8078E309F208DFFA807088828C832F
:10083000E309F0A3DFFA806489828A83E0A3F608E3
:10084000DFFA805889828A83E0A3F208DFFA804CBD
:1008500080D280FA80C680D4806980F28033801094
:1008600080A680EA809A80A880DA80E280CA8033FD
:1008700089828A83ECFAE493A3C8C582C8CCC58375
:10088000CCF0A3C8C582C8CCC583CCDFE9DEE78045
:100890000D89828A83E493A3F608DFF9ECFAA9F0C4
:1008A000EDFB2289828A83ECFAE0A3C8C582C8CC1A
:1008B000C583CCF0A3C8C582C8CCC583CCDFEADE33
:1008C000E880DB89828A83E493A3F208DFF980CC95
:1008D00088F0EF60010E4E60C388F0ED2402B4048E
:1008E0000050B9F582EB2402B4040050AF23234535
:0608F00082239008507302
:1008F600BB010689828A83E0225002E722BBFE0200
:09090600E32289828A83E4932232
:10090F00C2D5EC30E709B2D5E4C39DFDE49CFCEE03
:10091F0030E715B2D5E4C39FFFE49EFE12095BC317
:10092F00E49DFDE49CFC800312095B30D507C3E412
:06093F009FFFE49EFE2272
:10094500EB9FF5F0EA9E42F0E99D42F0EC6480C829
:0609550064809845F022C9
:10095B00BC000BBE0029EF8DF084FFADF022E4CC80
:10096B00F875F008EF2FFFEE33FEEC33FCEE9DEC49
:10097B00984005FCEE9DFE0FD5F0E9E4CEFD22ED8F
:10098B00F8F5F0EE8420D21CFEADF075F008EF2FD9
:10099B00FFED33FD4007985006D5F0F222C398FDCA
:0509AB000FD5F0EA2267
:00000001FF
